:100000000C942A000C9447000C9447000C94470071
:100010000C9447000C9447000C9447000C94470044
:100020000C9447000C9447000C9447000C94470034
:100030000C9447000C94D4030C9447000C94FD03DB
:100040000C9447000C9447000C9447000C94470014
:100050000C94470011241FBECFE5D8E0DEBFCDBF12
:1000600010E0A0E6B0E0EAECFAE002C005900D92E4
:10007000AA39B107D9F710E0AAE9B0E001C01D9292
:10008000A33EB107E1F70E94B9040C9463050C94F8
:1000900000009093A8008093A70008958091A90084
:1000A0009091AA00A091AB00B091AC000196A11D67
:1000B000B11D8093A9009093AA00A093AB00B093C8
:1000C000AC0008959C01809160008F3F79F483E239
:1000D0008093D9007093DD006093DC003093DB00E7
:1000E0002093DA001092DE001092600081E0089503
:1000F00081E08093600008951092DE0023E2209357
:10010000D9009093DD008093DC0008958091600019
:10011000813009F041C0809161008823E9F5209188
:100120009A0030919B0040919C0050919D008091DD
:10013000DA009091DB00A0E0B0E0281739074A0709
:100140005B0750F120919E0030919F004091A000EC
:100150005091A1008091DE0090E0A0E0B0E0821715
:100160009307A407B50711F080E00895D89A10927C
:10017000A2001092A3001092A4001092A500109269
:10018000A60010926000E091A700F091A8003097BF
:1001900019F0099581E0089581E00895FC018081BE
:1001A000813011F40E94280408951F93809160000B
:1001B000882309F0B2C02091A9003091AA00409193
:1001C000AB005091AC008091620090916300A091CF
:1001D0006400B091650082179307A407B50709F47E
:1001E0009CC08091A9009091AA00A091AB00B09111
:1001F000AC008093620090936300A0936400B0937E
:1002000065008091A9009091AA00A091AB00B091E7
:10021000AC000097A105B10519F48091D9001DC06B
:100220008091A9009091AA00A091AB00B091AC0080
:100230000197A105B10519F48091DB000EC08091F2
:10024000A9009091AA00A091AB00B091AC000297D8
:10025000A105B10531F48091DA000E94A003182FA6
:100260005DC08091A9009091AA00A091AB00B091CF
:10027000AC000397A105B10508F44FC02091AD0073
:100280003091AE004091AF005091B0008091DA0003
:100290009091DB00A0E0B0E0281739074A075B0720
:1002A00021F1E091DC00F091DD00E20FF31F80818D
:1002B0009091DE0089278093DE0080810E94A00358
:1002C000182F8091AD009091AE00A091AF00B09139
:1002D000B0000196A11DB11D8093AD009093AE00BA
:1002E000A093AF00B093B00019C081E0809360008C
:1002F0001092A9001092AA001092AB001092AC00CC
:100300008091DE000E94A003182FE091A700F091D9
:10031000A800309719F0099501C011E0812F1F91B5
:1003200008950F931F938C0181EB91E00E94D902F5
:100330008EE490E00E94D402F8010081013041F087
:10034000013010F0043010F080E008C081E006C0F9
:1003500080917700909178000E94DE021F910F91AA
:10036000089581EB90E00E94BE038091600081308F
:1003700009F019C18091A3009091A400A091A5005B
:10038000B091A6000397A105B10508F466C02091BD
:100390009A0030919B0040919C0050919D0080916B
:1003A000DA009091DB00A0E0B0E0281739074A0797
:1003B0005B0709F43FC080919A0090919B00A09147
:1003C0009C00B0919D002091B1003091B20040910D
:1003D000B3005091B400E091DC00F091DD00E80F33
:1003E000F91F208380919A0090919B00A0919C001E
:1003F000B0919D00E091DC00F091DD00E80FF91F65
:1004000080819091DE0089278093DE0080919A00A0
:1004100090919B00A0919C00B0919D000196A11D20
:10042000B11D80939A0090939B00A0939C00B09381
:100430009D0008958091B1009091B200A091B30009
:10044000B091B40080939E0090939F00A093A00071
:10045000B093A1001092610008958091A300909143
:10046000A400A091A500B091A6000397A105B10535
:1004700008F099C02091B1003091B2004091B300D2
:100480005091B4008091D90090E0A0E0B0E08217D4
:100490009307A407B50729F08091A200813009F0E5
:1004A00082C08091A3009091A400A091A500B0917A
:1004B000A6000097A105B105C9F48091A300909111
:1004C000A400A091A500B091A6000196A11DB11DA8
:1004D0008093A3009093A400A093A500B093A600DE
:1004E0008091A2008F5F8093A20008958091A30065
:1004F0009091A400A091A500B091A6000197A1053C
:10050000B10501F58091B1009091B200A091B300C6
:10051000B091B4001092DA008093DB008091A300C8
:100520009091A400A091A500B091A6000196A11DF4
:10053000B11D8093A3009093A400A093A500B09355
:10054000A60008958091A3009091A400A091A50019
:10055000B091A6000297A105B10529F52091B1003F
:100560003091B2004091B3005091B4008091DA0014
:100570009091DB00822B932B9093DB008093DA0029
:100580008091A3009091A400A091A500B091A60035
:100590000196A11DB11D8093A3009093A400A09388
:1005A000A500B093A60008959093E0008093DF002B
:1005B00008959093E2008093E10008951F93CF93F4
:1005C000DF93EC018D85882329F481E08D8780B548
:1005D000806880BD8881882319F0813049F403C088
:1005E00080B5806402C080B58F7B80BD11E002C001
:1005F0001D8610E08981882321F0813019F4549AF6
:1006000001C054988A81882321F0813019F4539ACB
:1006100001C053988B818730A9F0883028F4853049
:1006200041F08630D1F407C0883089F08930A9F4D0
:1006300011C080B505C080B58B7F80BD80B582605C
:1006400080BD0DC080B580BD80B58460F9CF80B518
:100650008B7F80BD80B58660F3CF1D8610E08C81D6
:10066000813039F0813018F0823069F406C080B5ED
:1006700002C080B5806380BD08C080B5807180BD38
:1006800080B58062F8CF1D8610E08D81813019F031
:10069000823041F403C080B5877F02C080B5886096
:1006A00080BD02C01D8610E08E81813029F081302E
:1006B00028F08F3F29F402C0599A04C0599802C00B
:1006C0001D8610E02F81388549855A8594E0220FD8
:1006D000331F441F551F9A95D1F760E072E18AE7F6
:1006E00090E00E94FC042150304040405040BB2725
:1006F000A52F942F832F80BD29B98B85882319F0CE
:10070000813039F403C05798569805C0579A569AC5
:1007100002C01D8610E08C85813039F0813010F0E8
:100720008F3F39F480B58E7F02C080B5816080BD77
:1007300002C01D8610E0812FDF91CF911F91089597
:10074000982FE0917700F091780085858130A1F4B1
:100750008385882319F45D9BFECF0BC0813061F443
:100760008091B600882331F48091B6008F5F80932A
:10077000B6009CB981E0089580E00895DC01E09125
:100780007700F09178008585813061F48385882336
:1007900019F45D9BFECF02C0813021F48CB18C93A3
:1007A00081E0089580E008951F920F920FB60F9296
:1007B00011242F933F934F935F936F937F938F9366
:1007C0009F93AF93BF93EF93FF93E091E100F0917C
:1007D000E200309709F00995FF91EF91BF91AF9139
:1007E0009F918F917F916F915F914F913F912F9149
:1007F0000F900FBE0F901F9018951F920F920FB67B
:100800000F9211242F933F934F935F936F937F9396
:100810008F939F93AF93BF93EF93FF931092B60084
:10082000E091DF00F091E000309709F00995FF9129
:10083000EF91BF91AF919F918F917F916F915F9158
:100840004F913F912F910F900FBE0F901F901895D1
:100850005498539808959498959820ED37E0F901AD
:100860003197F1F7969AF9013197F1F785BBC901F4
:100870000197F1F79698C9010197F1F708958FEF65
:1008800084BB81B3806781BB88E30E942B048CE02A
:100890000E942B0481E00E942B040895949A95985D
:1008A00020ED37E0F9013197F1F7969AF901319788
:1008B000F1F785BBC9010197F1F79698C901019736
:1008C000F1F708951F93CF93DF93EC0110E003C07D
:1008D0000E944E041F5FFE01E10FF11D80818823FD
:1008E000B9F7DF91CF911F910895813039F08130B0
:1008F00050F0823029F0833031F404C0605C03C0D2
:10090000605F01C0605B862F80680E942B040895A1
:100910000F931F938A010E947504C8010E9462040C
:100920001F910F91089581E00E942B0408950F9369
:100930001F93DF93CF93CDB7DEB760970FB6F894D0
:10094000DEBF0FBECDBF8E010F5F1F4FB8014AE063
:1009500050E00E941E05C8010E94620460960FB616
:10096000F894DEBF0FBECDBFCF91DF911F910F91E5
:1009700008950E943F0488EE94E00E9449000E947E
:10098000780087EB90E00E947C0080916700909156
:1009900068000E9491018FB780688FBF8091D80056
:1009A000882319F40E948600F9CF8130B9F70E949C
:1009B000D500F4CF81E060E00E94750489E790E003
:1009C0000E9462048091D8008F5F8093D8000895C0
:1009D00087EB90E00E9462048AED94E00E94490057
:1009E00081E290E069E770E00E9462008091D800A7
:1009F0008F5F8093D8000895A1E21A2EAA1BBB1B1B
:100A0000FD010DC0AA1FBB1FEE1FFF1FA217B307DA
:100A1000E407F50720F0A21BB30BE40BF50B661FF0
:100A2000771F881F991F1A9469F7609570958095B4
:100A300090959B01AC01BD01CF010895FB019F0181
:100A4000E8944230C4F04532B4F44A3029F497FBBC
:100A50001EF4909581959F4F642F77270E944F0534
:100A6000805D8A330CF0895D8193CB010097A1F7FB
:100A700016F45DE251931082C9010C943F05DC012C
:100A8000FC01672F71917723E1F7329704C07C91C5
:100A90006D9370836291AE17BF07C8F30895AA1BC8
:100AA000BB1B51E107C0AA1FBB1FA617B70710F059
:100AB000A61BB70B881F991F5A95A9F7809590958B
:0A0AC000BC01CD010895F894FFCFAA
:100ACA00FF010100000001660001010108000100A8
:100ADA008025000001FF00690042424242420000B4
:100AEA0000000000000000000000000000000000FC
:0A0AFA0000000000000000000000F2
:00000001FF
